{
  "contractName": "PunchStarter",
  "abi": [
    {
      "inputs": [
        {
          "internalType": "string",
          "name": "_name",
          "type": "string"
        },
        {
          "internalType": "uint256",
          "name": "_targetAmountEth",
          "type": "uint256"
        },
        {
          "internalType": "uint256",
          "name": "_minsToDeadline",
          "type": "uint256"
        },
        {
          "internalType": "address",
          "name": "_beneficiary",
          "type": "address"
        }
      ],
      "stateMutability": "nonpayable",
      "type": "constructor"
    },
    {
      "anonymous": false,
      "inputs": [
        {
          "indexed": false,
          "internalType": "address",
          "name": "addr",
          "type": "address"
        },
        {
          "indexed": false,
          "internalType": "uint256",
          "name": "amountCollected",
          "type": "uint256"
        },
        {
          "indexed": false,
          "internalType": "bool",
          "name": "succeeded",
          "type": "bool"
        }
      ],
      "name": "CampaignFinished",
      "type": "event"
    },
    {
      "inputs": [],
      "name": "achieved",
      "outputs": [
        {
          "internalType": "bool",
          "name": "",
          "type": "bool"
        }
      ],
      "stateMutability": "view",
      "type": "function"
    },
    {
      "inputs": [],
      "name": "amountCollected",
      "outputs": [
        {
          "internalType": "uint256",
          "name": "",
          "type": "uint256"
        }
      ],
      "stateMutability": "view",
      "type": "function"
    },
    {
      "inputs": [],
      "name": "beneficiary",
      "outputs": [
        {
          "internalType": "address payable",
          "name": "",
          "type": "address"
        }
      ],
      "stateMutability": "view",
      "type": "function"
    },
    {
      "inputs": [
        {
          "internalType": "address",
          "name": "",
          "type": "address"
        }
      ],
      "name": "contributions",
      "outputs": [
        {
          "internalType": "uint256",
          "name": "",
          "type": "uint256"
        }
      ],
      "stateMutability": "view",
      "type": "function"
    },
    {
      "inputs": [],
      "name": "fundingDeadline",
      "outputs": [
        {
          "internalType": "uint256",
          "name": "",
          "type": "uint256"
        }
      ],
      "stateMutability": "view",
      "type": "function"
    },
    {
      "inputs": [],
      "name": "name",
      "outputs": [
        {
          "internalType": "string",
          "name": "",
          "type": "string"
        }
      ],
      "stateMutability": "view",
      "type": "function"
    },
    {
      "inputs": [],
      "name": "state",
      "outputs": [
        {
          "internalType": "enum PunchStarter.State",
          "name": "",
          "type": "uint8"
        }
      ],
      "stateMutability": "view",
      "type": "function"
    },
    {
      "inputs": [],
      "name": "targetAmount",
      "outputs": [
        {
          "internalType": "uint256",
          "name": "",
          "type": "uint256"
        }
      ],
      "stateMutability": "view",
      "type": "function"
    },
    {
      "inputs": [],
      "name": "contribute",
      "outputs": [],
      "stateMutability": "payable",
      "type": "function"
    },
    {
      "inputs": [],
      "name": "endCampaign",
      "outputs": [],
      "stateMutability": "nonpayable",
      "type": "function"
    },
    {
      "inputs": [],
      "name": "collect",
      "outputs": [],
      "stateMutability": "nonpayable",
      "type": "function"
    },
    {
      "inputs": [],
      "name": "withdraw",
      "outputs": [],
      "stateMutability": "nonpayable",
      "type": "function"
    },
    {
      "inputs": [],
      "name": "beforeDeadline",
      "outputs": [
        {
          "internalType": "bool",
          "name": "",
          "type": "bool"
        }
      ],
      "stateMutability": "view",
      "type": "function"
    }
  ],
  "bytecode": "0x60806040523480156200001157600080fd5b50604051620016de380380620016de8339818101604052810190620000379190620004e0565b83600090805190602001906200004f929190620001f3565b5073__Utils_________________________________63d8916bb9846040518263ffffffff1660e01b815260040162000089919062000582565b602060405180830381865af4158015620000a7573d6000803e3d6000fd5b505050506040513d601f19601f82011682018060405250810190620000cd91906200059f565b60018190555080600360006101000a81548173ffffffffffffffffffffffffffffffffffffffff021916908373ffffffffffffffffffffffffffffffffffffffff16021790555073__Utils_________________________________63529b380f836040518263ffffffff1660e01b81526004016200014d919062000582565b602060405180830381865af41580156200016b573d6000803e3d6000fd5b505050506040513d601f19601f820116820180604052508101906200019191906200059f565b620001a1620001eb60201b60201c565b620001ad919062000600565b6002819055506000600360146101000a81548160ff02191690836003811115620001dc57620001db6200065d565b5b021790555050505050620006f1565b600042905090565b8280546200020190620006bb565b90600052602060002090601f01602090048101928262000225576000855562000271565b82601f106200024057805160ff191683800117855562000271565b8280016001018555821562000271579182015b828111156200027057825182559160200191906001019062000253565b5b50905062000280919062000284565b5090565b5b808211156200029f57600081600090555060010162000285565b5090565b6000604051905090565b600080fd5b600080fd5b600080fd5b600080fd5b6000601f19601f8301169050919050565b7f4e487b7100000000000000000000000000000000000000000000000000000000600052604160045260246000fd5b6200030c82620002c1565b810181811067ffffffffffffffff821117156200032e576200032d620002d2565b5b80604052505050565b600062000343620002a3565b905062000351828262000301565b919050565b600067ffffffffffffffff821115620003745762000373620002d2565b5b6200037f82620002c1565b9050602081019050919050565b60005b83811015620003ac5780820151818401526020810190506200038f565b83811115620003bc576000848401525b50505050565b6000620003d9620003d38462000356565b62000337565b905082815260208101848484011115620003f857620003f7620002bc565b5b620004058482856200038c565b509392505050565b600082601f830112620004255762000424620002b7565b5b815162000437848260208601620003c2565b91505092915050565b6000819050919050565b620004558162000440565b81146200046157600080fd5b50565b60008151905062000475816200044a565b92915050565b600073ffffffffffffffffffffffffffffffffffffffff82169050919050565b6000620004a8826200047b565b9050919050565b620004ba816200049b565b8114620004c657600080fd5b50565b600081519050620004da81620004af565b92915050565b60008060008060808587031215620004fd57620004fc620002ad565b5b600085015167ffffffffffffffff8111156200051e576200051d620002b2565b5b6200052c878288016200040d565b94505060206200053f8782880162000464565b9350506040620005528782880162000464565b92505060606200056587828801620004c9565b91505092959194509250565b6200057c8162000440565b82525050565b600060208201905062000599600083018462000571565b92915050565b600060208284031215620005b857620005b7620002ad565b5b6000620005c88482850162000464565b91505092915050565b7f4e487b7100000000000000000000000000000000000000000000000000000000600052601160045260246000fd5b60006200060d8262000440565b91506200061a8362000440565b9250827fffffffffffffffffffffffffffffffffffffffffffffffffffffffffffffffff03821115620006525762000651620005d1565b5b828201905092915050565b7f4e487b7100000000000000000000000000000000000000000000000000000000600052602160045260246000fd5b7f4e487b7100000000000000000000000000000000000000000000000000000000600052602260045260246000fd5b60006002820490506001821680620006d457607f821691505b60208210811415620006eb57620006ea6200068c565b5b50919050565b610fdd80620007016000396000f3fe6080604052600436106100c25760003560e01c806371aac7f91161007f578063c19d93fb11610059578063c19d93fb14610234578063d7bb99ba1461025f578063e522538114610269578063eacd52a314610280576100c2565b806371aac7f9146101c7578063796b23bb146101de578063953b8fb814610209576100c2565b806306fdde03146100c7578063332f7acf146100f257806338af3eed1461011d5780633ccfd60b1461014857806342e94c901461015f57806368bc00411461019c575b600080fd5b3480156100d357600080fd5b506100dc6102ab565b6040516100e99190610a6f565b60405180910390f35b3480156100fe57600080fd5b50610107610339565b6040516101149190610aaa565b60405180910390f35b34801561012957600080fd5b5061013261033f565b60405161013f9190610b06565b60405180910390f35b34801561015457600080fd5b5061015d610365565b005b34801561016b57600080fd5b5061018660048036038101906101819190610b64565b610569565b6040516101939190610aaa565b60405180910390f35b3480156101a857600080fd5b506101b1610581565b6040516101be9190610bac565b60405180910390f35b3480156101d357600080fd5b506101dc610594565b005b3480156101ea57600080fd5b506101f3610712565b6040516102009190610aaa565b60405180910390f35b34801561021557600080fd5b5061021e610718565b60405161022b9190610aaa565b60405180910390f35b34801561024057600080fd5b5061024961071e565b6040516102569190610c3e565b60405180910390f35b610267610731565b005b34801561027557600080fd5b5061027e610888565b005b34801561028c57600080fd5b506102956109bb565b6040516102a29190610bac565b60405180910390f35b600080546102b890610c88565b80601f01602080910402602001604051908101604052809291908181526020018280546102e490610c88565b80156103315780601f1061030657610100808354040283529160200191610331565b820191906000526020600020905b81548152906001019060200180831161031457829003601f168201915b505050505081565b60065481565b600360009054906101000a900473ffffffffffffffffffffffffffffffffffffffff1681565b600180600381111561037a57610379610bc7565b5b600360149054906101000a900460ff16600381111561039c5761039b610bc7565b5b146103dc576040517f08c379a00000000000000000000000000000000000000000000000000000000081526004016103d390610d06565b60405180910390fd5b6000600460003373ffffffffffffffffffffffffffffffffffffffff1673ffffffffffffffffffffffffffffffffffffffff168152602001908152602001600020541161045e576040517f08c379a000000000000000000000000000000000000000000000000000000000815260040161045590610d98565b60405180910390fd5b6000600460003373ffffffffffffffffffffffffffffffffffffffff1673ffffffffffffffffffffffffffffffffffffffff1681526020019081526020016000205490506000600460003373ffffffffffffffffffffffffffffffffffffffff1673ffffffffffffffffffffffffffffffffffffffff168152602001908152602001600020819055503373ffffffffffffffffffffffffffffffffffffffff166108fc829081150290604051600060405180830381858888f193505050506105655780600460003373ffffffffffffffffffffffffffffffffffffffff1673ffffffffffffffffffffffffffffffffffffffff168152602001908152602001600020819055505b5050565b60046020528060005260406000206000915090505481565b600060025461058e6109ce565b10905090565b60008060038111156105a9576105a8610bc7565b5b600360149054906101000a900460ff1660038111156105cb576105ca610bc7565b5b1461060b576040517f08c379a000000000000000000000000000000000000000000000000000000000815260040161060290610d06565b60405180910390fd5b610613610581565b15610653576040517f08c379a000000000000000000000000000000000000000000000000000000000815260040161064a90610e2a565b60405180910390fd5b600560009054906101000a900460ff16610697576001600360146101000a81548160ff0219169083600381111561068d5761068c610bc7565b5b02179055506106c3565b6002600360146101000a81548160ff021916908360038111156106bd576106bc610bc7565b5b02179055505b7f6fa7e87ebbd87ed4f1c40bba63144f68fd2bb022fb748ab3b61b5411c39bd47430600654600560009054906101000a900460ff1660405161070793929190610e59565b60405180910390a150565b60025481565b60015481565b600360149054906101000a900460ff1681565b600080600381111561074657610745610bc7565b5b600360149054906101000a900460ff16600381111561076857610767610bc7565b5b146107a8576040517f08c379a000000000000000000000000000000000000000000000000000000000815260040161079f90610d06565b60405180910390fd5b6107b0610581565b6107ef576040517f08c379a00000000000000000000000000000000000000000000000000000000081526004016107e690610f02565b60405180910390fd5b34600460003373ffffffffffffffffffffffffffffffffffffffff1673ffffffffffffffffffffffffffffffffffffffff168152602001908152602001600020600082825461083e9190610f51565b9250508190555034600660008282546108579190610f51565b9250508190555060015460065410610885576001600560006101000a81548160ff0219169083151502179055505b50565b600280600381111561089d5761089c610bc7565b5b600360149054906101000a900460ff1660038111156108bf576108be610bc7565b5b146108ff576040517f08c379a00000000000000000000000000000000000000000000000000000000081526004016108f690610d06565b60405180910390fd5b600360009054906101000a900473ffffffffffffffffffffffffffffffffffffffff1673ffffffffffffffffffffffffffffffffffffffff166108fc6006549081150290604051600060405180830381858888f193505050501561098c5760038060146101000a81548160ff0219169083600381111561098257610981610bc7565b5b02179055506109b8565b6001600360146101000a81548160ff021916908360038111156109b2576109b1610bc7565b5b02179055505b50565b600560009054906101000a900460ff1681565b600042905090565b600081519050919050565b600082825260208201905092915050565b60005b83811015610a105780820151818401526020810190506109f5565b83811115610a1f576000848401525b50505050565b6000601f19601f8301169050919050565b6000610a41826109d6565b610a4b81856109e1565b9350610a5b8185602086016109f2565b610a6481610a25565b840191505092915050565b60006020820190508181036000830152610a898184610a36565b905092915050565b6000819050919050565b610aa481610a91565b82525050565b6000602082019050610abf6000830184610a9b565b92915050565b600073ffffffffffffffffffffffffffffffffffffffff82169050919050565b6000610af082610ac5565b9050919050565b610b0081610ae5565b82525050565b6000602082019050610b1b6000830184610af7565b92915050565b600080fd5b6000610b3182610ac5565b9050919050565b610b4181610b26565b8114610b4c57600080fd5b50565b600081359050610b5e81610b38565b92915050565b600060208284031215610b7a57610b79610b21565b5b6000610b8884828501610b4f565b91505092915050565b60008115159050919050565b610ba681610b91565b82525050565b6000602082019050610bc16000830184610b9d565b92915050565b7f4e487b7100000000000000000000000000000000000000000000000000000000600052602160045260246000fd5b60048110610c0757610c06610bc7565b5b50565b6000819050610c1882610bf6565b919050565b6000610c2882610c0a565b9050919050565b610c3881610c1d565b82525050565b6000602082019050610c536000830184610c2f565b92915050565b7f4e487b7100000000000000000000000000000000000000000000000000000000600052602260045260246000fd5b60006002820490506001821680610ca057607f821691505b60208210811415610cb457610cb3610c59565b5b50919050565b7f496e76616c696420737461746500000000000000000000000000000000000000600082015250565b6000610cf0600d836109e1565b9150610cfb82610cba565b602082019050919050565b60006020820190508181036000830152610d1f81610ce3565b9050919050565b7f55736572206469646e2774207061727469636970617465206f6e2063616d706160008201527f69676e0000000000000000000000000000000000000000000000000000000000602082015250565b6000610d826023836109e1565b9150610d8d82610d26565b604082019050919050565b60006020820190508181036000830152610db181610d75565b9050919050565b7f43616e6e6f7420656e642063616d706169676e206265666f726520646561646c60008201527f696e650000000000000000000000000000000000000000000000000000000000602082015250565b6000610e146023836109e1565b9150610e1f82610db8565b604082019050919050565b60006020820190508181036000830152610e4381610e07565b9050919050565b610e5381610b26565b82525050565b6000606082019050610e6e6000830186610e4a565b610e7b6020830185610a9b565b610e886040830184610b9d565b949350505050565b7f43726f776466756e64696e672063616d706169676e206861732066696e69736860008201527f6564000000000000000000000000000000000000000000000000000000000000602082015250565b6000610eec6022836109e1565b9150610ef782610e90565b604082019050919050565b60006020820190508181036000830152610f1b81610edf565b9050919050565b7f4e487b7100000000000000000000000000000000000000000000000000000000600052601160045260246000fd5b6000610f5c82610a91565b9150610f6783610a91565b9250827fffffffffffffffffffffffffffffffffffffffffffffffffffffffffffffffff03821115610f9c57610f9b610f22565b5b82820190509291505056fea2646970667358221220481dd528ca9d1d4a285784c1715eeb6684b7ae5e69642bbb05c36c56208e5e9864736f6c634300080a0033",
  "deployedBytecode": "0x6080604052600436106100c25760003560e01c806371aac7f91161007f578063c19d93fb11610059578063c19d93fb14610234578063d7bb99ba1461025f578063e522538114610269578063eacd52a314610280576100c2565b806371aac7f9146101c7578063796b23bb146101de578063953b8fb814610209576100c2565b806306fdde03146100c7578063332f7acf146100f257806338af3eed1461011d5780633ccfd60b1461014857806342e94c901461015f57806368bc00411461019c575b600080fd5b3480156100d357600080fd5b506100dc6102ab565b6040516100e99190610a6f565b60405180910390f35b3480156100fe57600080fd5b50610107610339565b6040516101149190610aaa565b60405180910390f35b34801561012957600080fd5b5061013261033f565b60405161013f9190610b06565b60405180910390f35b34801561015457600080fd5b5061015d610365565b005b34801561016b57600080fd5b5061018660048036038101906101819190610b64565b610569565b6040516101939190610aaa565b60405180910390f35b3480156101a857600080fd5b506101b1610581565b6040516101be9190610bac565b60405180910390f35b3480156101d357600080fd5b506101dc610594565b005b3480156101ea57600080fd5b506101f3610712565b6040516102009190610aaa565b60405180910390f35b34801561021557600080fd5b5061021e610718565b60405161022b9190610aaa565b60405180910390f35b34801561024057600080fd5b5061024961071e565b6040516102569190610c3e565b60405180910390f35b610267610731565b005b34801561027557600080fd5b5061027e610888565b005b34801561028c57600080fd5b506102956109bb565b6040516102a29190610bac565b60405180910390f35b600080546102b890610c88565b80601f01602080910402602001604051908101604052809291908181526020018280546102e490610c88565b80156103315780601f1061030657610100808354040283529160200191610331565b820191906000526020600020905b81548152906001019060200180831161031457829003601f168201915b505050505081565b60065481565b600360009054906101000a900473ffffffffffffffffffffffffffffffffffffffff1681565b600180600381111561037a57610379610bc7565b5b600360149054906101000a900460ff16600381111561039c5761039b610bc7565b5b146103dc576040517f08c379a00000000000000000000000000000000000000000000000000000000081526004016103d390610d06565b60405180910390fd5b6000600460003373ffffffffffffffffffffffffffffffffffffffff1673ffffffffffffffffffffffffffffffffffffffff168152602001908152602001600020541161045e576040517f08c379a000000000000000000000000000000000000000000000000000000000815260040161045590610d98565b60405180910390fd5b6000600460003373ffffffffffffffffffffffffffffffffffffffff1673ffffffffffffffffffffffffffffffffffffffff1681526020019081526020016000205490506000600460003373ffffffffffffffffffffffffffffffffffffffff1673ffffffffffffffffffffffffffffffffffffffff168152602001908152602001600020819055503373ffffffffffffffffffffffffffffffffffffffff166108fc829081150290604051600060405180830381858888f193505050506105655780600460003373ffffffffffffffffffffffffffffffffffffffff1673ffffffffffffffffffffffffffffffffffffffff168152602001908152602001600020819055505b5050565b60046020528060005260406000206000915090505481565b600060025461058e6109ce565b10905090565b60008060038111156105a9576105a8610bc7565b5b600360149054906101000a900460ff1660038111156105cb576105ca610bc7565b5b1461060b576040517f08c379a000000000000000000000000000000000000000000000000000000000815260040161060290610d06565b60405180910390fd5b610613610581565b15610653576040517f08c379a000000000000000000000000000000000000000000000000000000000815260040161064a90610e2a565b60405180910390fd5b600560009054906101000a900460ff16610697576001600360146101000a81548160ff0219169083600381111561068d5761068c610bc7565b5b02179055506106c3565b6002600360146101000a81548160ff021916908360038111156106bd576106bc610bc7565b5b02179055505b7f6fa7e87ebbd87ed4f1c40bba63144f68fd2bb022fb748ab3b61b5411c39bd47430600654600560009054906101000a900460ff1660405161070793929190610e59565b60405180910390a150565b60025481565b60015481565b600360149054906101000a900460ff1681565b600080600381111561074657610745610bc7565b5b600360149054906101000a900460ff16600381111561076857610767610bc7565b5b146107a8576040517f08c379a000000000000000000000000000000000000000000000000000000000815260040161079f90610d06565b60405180910390fd5b6107b0610581565b6107ef576040517f08c379a00000000000000000000000000000000000000000000000000000000081526004016107e690610f02565b60405180910390fd5b34600460003373ffffffffffffffffffffffffffffffffffffffff1673ffffffffffffffffffffffffffffffffffffffff168152602001908152602001600020600082825461083e9190610f51565b9250508190555034600660008282546108579190610f51565b9250508190555060015460065410610885576001600560006101000a81548160ff0219169083151502179055505b50565b600280600381111561089d5761089c610bc7565b5b600360149054906101000a900460ff1660038111156108bf576108be610bc7565b5b146108ff576040517f08c379a00000000000000000000000000000000000000000000000000000000081526004016108f690610d06565b60405180910390fd5b600360009054906101000a900473ffffffffffffffffffffffffffffffffffffffff1673ffffffffffffffffffffffffffffffffffffffff166108fc6006549081150290604051600060405180830381858888f193505050501561098c5760038060146101000a81548160ff0219169083600381111561098257610981610bc7565b5b02179055506109b8565b6001600360146101000a81548160ff021916908360038111156109b2576109b1610bc7565b5b02179055505b50565b600560009054906101000a900460ff1681565b600042905090565b600081519050919050565b600082825260208201905092915050565b60005b83811015610a105780820151818401526020810190506109f5565b83811115610a1f576000848401525b50505050565b6000601f19601f8301169050919050565b6000610a41826109d6565b610a4b81856109e1565b9350610a5b8185602086016109f2565b610a6481610a25565b840191505092915050565b60006020820190508181036000830152610a898184610a36565b905092915050565b6000819050919050565b610aa481610a91565b82525050565b6000602082019050610abf6000830184610a9b565b92915050565b600073ffffffffffffffffffffffffffffffffffffffff82169050919050565b6000610af082610ac5565b9050919050565b610b0081610ae5565b82525050565b6000602082019050610b1b6000830184610af7565b92915050565b600080fd5b6000610b3182610ac5565b9050919050565b610b4181610b26565b8114610b4c57600080fd5b50565b600081359050610b5e81610b38565b92915050565b600060208284031215610b7a57610b79610b21565b5b6000610b8884828501610b4f565b91505092915050565b60008115159050919050565b610ba681610b91565b82525050565b6000602082019050610bc16000830184610b9d565b92915050565b7f4e487b7100000000000000000000000000000000000000000000000000000000600052602160045260246000fd5b60048110610c0757610c06610bc7565b5b50565b6000819050610c1882610bf6565b919050565b6000610c2882610c0a565b9050919050565b610c3881610c1d565b82525050565b6000602082019050610c536000830184610c2f565b92915050565b7f4e487b7100000000000000000000000000000000000000000000000000000000600052602260045260246000fd5b60006002820490506001821680610ca057607f821691505b60208210811415610cb457610cb3610c59565b5b50919050565b7f496e76616c696420737461746500000000000000000000000000000000000000600082015250565b6000610cf0600d836109e1565b9150610cfb82610cba565b602082019050919050565b60006020820190508181036000830152610d1f81610ce3565b9050919050565b7f55736572206469646e2774207061727469636970617465206f6e2063616d706160008201527f69676e0000000000000000000000000000000000000000000000000000000000602082015250565b6000610d826023836109e1565b9150610d8d82610d26565b604082019050919050565b60006020820190508181036000830152610db181610d75565b9050919050565b7f43616e6e6f7420656e642063616d706169676e206265666f726520646561646c60008201527f696e650000000000000000000000000000000000000000000000000000000000602082015250565b6000610e146023836109e1565b9150610e1f82610db8565b604082019050919050565b60006020820190508181036000830152610e4381610e07565b9050919050565b610e5381610b26565b82525050565b6000606082019050610e6e6000830186610e4a565b610e7b6020830185610a9b565b610e886040830184610b9d565b949350505050565b7f43726f776466756e64696e672063616d706169676e206861732066696e69736860008201527f6564000000000000000000000000000000000000000000000000000000000000602082015250565b6000610eec6022836109e1565b9150610ef782610e90565b604082019050919050565b60006020820190508181036000830152610f1b81610edf565b9050919050565b7f4e487b7100000000000000000000000000000000000000000000000000000000600052601160045260246000fd5b6000610f5c82610a91565b9150610f6783610a91565b9250827fffffffffffffffffffffffffffffffffffffffffffffffffffffffffffffffff03821115610f9c57610f9b610f22565b5b82820190509291505056fea2646970667358221220481dd528ca9d1d4a285784c1715eeb6684b7ae5e69642bbb05c36c56208e5e9864736f6c634300080a0033",
  "immutableReferences": {},
  "source": "// SPDX-License-Identifier: MIT\npragma solidity >=0.7.0 <0.9.0;\n\nimport \"./Utils.sol\";\n\ncontract PunchStarter {\n    using Utils for *;\n\n    enum State {\n        OnGoing,\n        Failed,\n        Succeeded,\n        PaidOut\n    }\n\n    event CampaignFinished(\n        address addr,\n        uint256 amountCollected,\n        bool succeeded\n    );\n\n    string public name;\n    uint256 public targetAmount;\n    uint256 public fundingDeadline;\n    address payable public beneficiary;\n    State public state;\n\n    mapping(address => uint256) public contributions;\n    bool public achieved;\n    uint256 public amountCollected;\n\n    modifier inState(State expectedState) {\n        require(state == expectedState, \"Invalid state\");\n        _;\n    }\n\n    constructor(\n        string memory _name,\n        uint256 _targetAmountEth,\n        uint256 _minsToDeadline,\n        address _beneficiary\n    ) {\n        name = _name;\n        targetAmount = Utils.etherToWei(_targetAmountEth);\n        beneficiary = payable(_beneficiary);\n        fundingDeadline =\n            currentTime() +\n            Utils.minutesToSeconds(_minsToDeadline);\n        state = State.OnGoing;\n    }\n\n    function contribute() public payable inState(State.OnGoing) {\n        require(beforeDeadline(), \"Crowdfunding campaign has finished\");\n\n        contributions[msg.sender] += msg.value;\n        amountCollected += msg.value;\n\n        if (amountCollected >= targetAmount) {\n            achieved = true;\n        }\n    }\n\n    function endCampaign() public inState(State.OnGoing) {\n        require(!beforeDeadline(), \"Cannot end campaign before deadline\");\n\n        if (!achieved) {\n            state = State.Failed;\n        } else {\n            state = State.Succeeded;\n        }\n\n        emit CampaignFinished(address(this), amountCollected, achieved);\n    }\n\n    function collect() public inState(State.Succeeded) {\n        if (beneficiary.send(amountCollected)) {\n            state = State.PaidOut;\n        } else {\n            state = State.Failed;\n        }\n    }\n\n    function withdraw() public inState(State.Failed) {\n        require(\n            contributions[msg.sender] > 0,\n            \"User didn't participate on campaign\"\n        );\n\n        uint256 contributed = contributions[msg.sender];\n        contributions[msg.sender] = 0;\n\n        if (!payable(msg.sender).send(contributed)) {\n            contributions[msg.sender] = contributed;\n        }\n    }\n\n    function beforeDeadline() public view returns (bool) {\n        return currentTime() < fundingDeadline;\n    }\n\n    function currentTime() internal view virtual returns (uint256) {\n        return block.timestamp;\n    }\n}\n",
  "sourcePath": "/Users/guidodizioli/Repos/Ethereum/punchStarter/contracts/PunchStarter.sol",
  "compiler": {
    "name": "solc",
    "version": "0.8.10+commit.fc410830.Emscripten.clang"
  },
  "schemaVersion": "3.4.3",
  "updatedAt": "2021-12-01T13:58:50.024Z",
  "devdoc": {
    "kind": "dev",
    "methods": {},
    "version": 1
  },
  "userdoc": {
    "kind": "user",
    "methods": {},
    "version": 1
  }
}