{
  "contractName": "TestPunchStarter",
  "abi": [
    {
      "inputs": [
        {
          "internalType": "string",
          "name": "_name",
          "type": "string"
        },
        {
          "internalType": "uint256",
          "name": "_targetAmountEth",
          "type": "uint256"
        },
        {
          "internalType": "uint256",
          "name": "_minsToDeadline",
          "type": "uint256"
        },
        {
          "internalType": "address",
          "name": "_beneficiary",
          "type": "address"
        }
      ],
      "stateMutability": "nonpayable",
      "type": "constructor"
    },
    {
      "anonymous": false,
      "inputs": [
        {
          "indexed": false,
          "internalType": "address",
          "name": "addr",
          "type": "address"
        },
        {
          "indexed": false,
          "internalType": "uint256",
          "name": "amountCollected",
          "type": "uint256"
        },
        {
          "indexed": false,
          "internalType": "bool",
          "name": "succeeded",
          "type": "bool"
        }
      ],
      "name": "CampaignFinished",
      "type": "event"
    },
    {
      "inputs": [],
      "name": "achieved",
      "outputs": [
        {
          "internalType": "bool",
          "name": "",
          "type": "bool"
        }
      ],
      "stateMutability": "view",
      "type": "function"
    },
    {
      "inputs": [],
      "name": "amountCollected",
      "outputs": [
        {
          "internalType": "uint256",
          "name": "",
          "type": "uint256"
        }
      ],
      "stateMutability": "view",
      "type": "function"
    },
    {
      "inputs": [],
      "name": "beforeDeadline",
      "outputs": [
        {
          "internalType": "bool",
          "name": "",
          "type": "bool"
        }
      ],
      "stateMutability": "view",
      "type": "function"
    },
    {
      "inputs": [],
      "name": "beneficiary",
      "outputs": [
        {
          "internalType": "address payable",
          "name": "",
          "type": "address"
        }
      ],
      "stateMutability": "view",
      "type": "function"
    },
    {
      "inputs": [],
      "name": "collect",
      "outputs": [],
      "stateMutability": "nonpayable",
      "type": "function"
    },
    {
      "inputs": [],
      "name": "contribute",
      "outputs": [],
      "stateMutability": "payable",
      "type": "function"
    },
    {
      "inputs": [
        {
          "internalType": "address",
          "name": "",
          "type": "address"
        }
      ],
      "name": "contributions",
      "outputs": [
        {
          "internalType": "uint256",
          "name": "",
          "type": "uint256"
        }
      ],
      "stateMutability": "view",
      "type": "function"
    },
    {
      "inputs": [],
      "name": "endCampaign",
      "outputs": [],
      "stateMutability": "nonpayable",
      "type": "function"
    },
    {
      "inputs": [],
      "name": "fundingDeadline",
      "outputs": [
        {
          "internalType": "uint256",
          "name": "",
          "type": "uint256"
        }
      ],
      "stateMutability": "view",
      "type": "function"
    },
    {
      "inputs": [],
      "name": "name",
      "outputs": [
        {
          "internalType": "string",
          "name": "",
          "type": "string"
        }
      ],
      "stateMutability": "view",
      "type": "function"
    },
    {
      "inputs": [],
      "name": "state",
      "outputs": [
        {
          "internalType": "enum PunchStarter.State",
          "name": "",
          "type": "uint8"
        }
      ],
      "stateMutability": "view",
      "type": "function"
    },
    {
      "inputs": [],
      "name": "targetAmount",
      "outputs": [
        {
          "internalType": "uint256",
          "name": "",
          "type": "uint256"
        }
      ],
      "stateMutability": "view",
      "type": "function"
    },
    {
      "inputs": [],
      "name": "withdraw",
      "outputs": [],
      "stateMutability": "nonpayable",
      "type": "function"
    },
    {
      "inputs": [
        {
          "internalType": "uint256",
          "name": "_time",
          "type": "uint256"
        }
      ],
      "name": "setTime",
      "outputs": [],
      "stateMutability": "nonpayable",
      "type": "function"
    }
  ],
  "bytecode": "0x60806040523480156200001157600080fd5b5060405162001791380380620017918339818101604052810190620000379190620004ea565b83838383836000908051906020019062000053929190620001fd565b5073__Utils_________________________________63d8916bb9846040518263ffffffff1660e01b81526004016200008d91906200058c565b602060405180830381865af4158015620000ab573d6000803e3d6000fd5b505050506040513d601f19601f82011682018060405250810190620000d19190620005a9565b60018190555080600360006101000a81548173ffffffffffffffffffffffffffffffffffffffff021916908373ffffffffffffffffffffffffffffffffffffffff16021790555073__Utils_________________________________63529b380f836040518263ffffffff1660e01b81526004016200015191906200058c565b602060405180830381865af41580156200016f573d6000803e3d6000fd5b505050506040513d601f19601f82011682018060405250810190620001959190620005a9565b620001a5620001f360201b60201c565b620001b191906200060a565b6002819055506000600360146101000a81548160ff02191690836003811115620001e057620001df62000667565b5b02179055505050505050505050620006fb565b6000600754905090565b8280546200020b90620006c5565b90600052602060002090601f0160209004810192826200022f57600085556200027b565b82601f106200024a57805160ff19168380011785556200027b565b828001600101855582156200027b579182015b828111156200027a5782518255916020019190600101906200025d565b5b5090506200028a91906200028e565b5090565b5b80821115620002a95760008160009055506001016200028f565b5090565b6000604051905090565b600080fd5b600080fd5b600080fd5b600080fd5b6000601f19601f8301169050919050565b7f4e487b7100000000000000000000000000000000000000000000000000000000600052604160045260246000fd5b6200031682620002cb565b810181811067ffffffffffffffff82111715620003385762000337620002dc565b5b80604052505050565b60006200034d620002ad565b90506200035b82826200030b565b919050565b600067ffffffffffffffff8211156200037e576200037d620002dc565b5b6200038982620002cb565b9050602081019050919050565b60005b83811015620003b657808201518184015260208101905062000399565b83811115620003c6576000848401525b50505050565b6000620003e3620003dd8462000360565b62000341565b905082815260208101848484011115620004025762000401620002c6565b5b6200040f84828562000396565b509392505050565b600082601f8301126200042f576200042e620002c1565b5b815162000441848260208601620003cc565b91505092915050565b6000819050919050565b6200045f816200044a565b81146200046b57600080fd5b50565b6000815190506200047f8162000454565b92915050565b600073ffffffffffffffffffffffffffffffffffffffff82169050919050565b6000620004b28262000485565b9050919050565b620004c481620004a5565b8114620004d057600080fd5b50565b600081519050620004e481620004b9565b92915050565b60008060008060808587031215620005075762000506620002b7565b5b600085015167ffffffffffffffff811115620005285762000527620002bc565b5b620005368782880162000417565b945050602062000549878288016200046e565b93505060406200055c878288016200046e565b92505060606200056f87828801620004d3565b91505092959194509250565b62000586816200044a565b82525050565b6000602082019050620005a360008301846200057b565b92915050565b600060208284031215620005c257620005c1620002b7565b5b6000620005d2848285016200046e565b91505092915050565b7f4e487b7100000000000000000000000000000000000000000000000000000000600052601160045260246000fd5b600062000617826200044a565b915062000624836200044a565b9250827fffffffffffffffffffffffffffffffffffffffffffffffffffffffffffffffff038211156200065c576200065b620005db565b5b828201905092915050565b7f4e487b7100000000000000000000000000000000000000000000000000000000600052602160045260246000fd5b7f4e487b7100000000000000000000000000000000000000000000000000000000600052602260045260246000fd5b60006002820490506001821680620006de57607f821691505b60208210811415620006f557620006f462000696565b5b50919050565b611086806200070b6000396000f3fe6080604052600436106100dd5760003560e01c806371aac7f91161007f578063c19d93fb11610059578063c19d93fb14610278578063d7bb99ba146102a3578063e5225381146102ad578063eacd52a3146102c4576100dd565b806371aac7f91461020b578063796b23bb14610222578063953b8fb81461024d576100dd565b80633beb26c4116100bb5780633beb26c4146101635780633ccfd60b1461018c57806342e94c90146101a357806368bc0041146101e0576100dd565b806306fdde03146100e2578063332f7acf1461010d57806338af3eed14610138575b600080fd5b3480156100ee57600080fd5b506100f76102ef565b6040516101049190610abf565b60405180910390f35b34801561011957600080fd5b5061012261037d565b60405161012f9190610afa565b60405180910390f35b34801561014457600080fd5b5061014d610383565b60405161015a9190610b56565b60405180910390f35b34801561016f57600080fd5b5061018a60048036038101906101859190610ba2565b6103a9565b005b34801561019857600080fd5b506101a16103b3565b005b3480156101af57600080fd5b506101ca60048036038101906101c59190610c0d565b6105b7565b6040516101d79190610afa565b60405180910390f35b3480156101ec57600080fd5b506101f56105cf565b6040516102029190610c55565b60405180910390f35b34801561021757600080fd5b506102206105e2565b005b34801561022e57600080fd5b50610237610760565b6040516102449190610afa565b60405180910390f35b34801561025957600080fd5b50610262610766565b60405161026f9190610afa565b60405180910390f35b34801561028457600080fd5b5061028d61076c565b60405161029a9190610ce7565b60405180910390f35b6102ab61077f565b005b3480156102b957600080fd5b506102c26108d6565b005b3480156102d057600080fd5b506102d9610a09565b6040516102e69190610c55565b60405180910390f35b600080546102fc90610d31565b80601f016020809104026020016040519081016040528092919081815260200182805461032890610d31565b80156103755780601f1061034a57610100808354040283529160200191610375565b820191906000526020600020905b81548152906001019060200180831161035857829003601f168201915b505050505081565b60065481565b600360009054906101000a900473ffffffffffffffffffffffffffffffffffffffff1681565b8060078190555050565b60018060038111156103c8576103c7610c70565b5b600360149054906101000a900460ff1660038111156103ea576103e9610c70565b5b1461042a576040517f08c379a000000000000000000000000000000000000000000000000000000000815260040161042190610daf565b60405180910390fd5b6000600460003373ffffffffffffffffffffffffffffffffffffffff1673ffffffffffffffffffffffffffffffffffffffff16815260200190815260200160002054116104ac576040517f08c379a00000000000000000000000000000000000000000000000000000000081526004016104a390610e41565b60405180910390fd5b6000600460003373ffffffffffffffffffffffffffffffffffffffff1673ffffffffffffffffffffffffffffffffffffffff1681526020019081526020016000205490506000600460003373ffffffffffffffffffffffffffffffffffffffff1673ffffffffffffffffffffffffffffffffffffffff168152602001908152602001600020819055503373ffffffffffffffffffffffffffffffffffffffff166108fc829081150290604051600060405180830381858888f193505050506105b35780600460003373ffffffffffffffffffffffffffffffffffffffff1673ffffffffffffffffffffffffffffffffffffffff168152602001908152602001600020819055505b5050565b60046020528060005260406000206000915090505481565b60006002546105dc610a1c565b10905090565b60008060038111156105f7576105f6610c70565b5b600360149054906101000a900460ff16600381111561061957610618610c70565b5b14610659576040517f08c379a000000000000000000000000000000000000000000000000000000000815260040161065090610daf565b60405180910390fd5b6106616105cf565b156106a1576040517f08c379a000000000000000000000000000000000000000000000000000000000815260040161069890610ed3565b60405180910390fd5b600560009054906101000a900460ff166106e5576001600360146101000a81548160ff021916908360038111156106db576106da610c70565b5b0217905550610711565b6002600360146101000a81548160ff0219169083600381111561070b5761070a610c70565b5b02179055505b7f6fa7e87ebbd87ed4f1c40bba63144f68fd2bb022fb748ab3b61b5411c39bd47430600654600560009054906101000a900460ff1660405161075593929190610f02565b60405180910390a150565b60025481565b60015481565b600360149054906101000a900460ff1681565b600080600381111561079457610793610c70565b5b600360149054906101000a900460ff1660038111156107b6576107b5610c70565b5b146107f6576040517f08c379a00000000000000000000000000000000000000000000000000000000081526004016107ed90610daf565b60405180910390fd5b6107fe6105cf565b61083d576040517f08c379a000000000000000000000000000000000000000000000000000000000815260040161083490610fab565b60405180910390fd5b34600460003373ffffffffffffffffffffffffffffffffffffffff1673ffffffffffffffffffffffffffffffffffffffff168152602001908152602001600020600082825461088c9190610ffa565b9250508190555034600660008282546108a59190610ffa565b92505081905550600154600654106108d3576001600560006101000a81548160ff0219169083151502179055505b50565b60028060038111156108eb576108ea610c70565b5b600360149054906101000a900460ff16600381111561090d5761090c610c70565b5b1461094d576040517f08c379a000000000000000000000000000000000000000000000000000000000815260040161094490610daf565b60405180910390fd5b600360009054906101000a900473ffffffffffffffffffffffffffffffffffffffff1673ffffffffffffffffffffffffffffffffffffffff166108fc6006549081150290604051600060405180830381858888f19350505050156109da5760038060146101000a81548160ff021916908360038111156109d0576109cf610c70565b5b0217905550610a06565b6001600360146101000a81548160ff02191690836003811115610a00576109ff610c70565b5b02179055505b50565b600560009054906101000a900460ff1681565b6000600754905090565b600081519050919050565b600082825260208201905092915050565b60005b83811015610a60578082015181840152602081019050610a45565b83811115610a6f576000848401525b50505050565b6000601f19601f8301169050919050565b6000610a9182610a26565b610a9b8185610a31565b9350610aab818560208601610a42565b610ab481610a75565b840191505092915050565b60006020820190508181036000830152610ad98184610a86565b905092915050565b6000819050919050565b610af481610ae1565b82525050565b6000602082019050610b0f6000830184610aeb565b92915050565b600073ffffffffffffffffffffffffffffffffffffffff82169050919050565b6000610b4082610b15565b9050919050565b610b5081610b35565b82525050565b6000602082019050610b6b6000830184610b47565b92915050565b600080fd5b610b7f81610ae1565b8114610b8a57600080fd5b50565b600081359050610b9c81610b76565b92915050565b600060208284031215610bb857610bb7610b71565b5b6000610bc684828501610b8d565b91505092915050565b6000610bda82610b15565b9050919050565b610bea81610bcf565b8114610bf557600080fd5b50565b600081359050610c0781610be1565b92915050565b600060208284031215610c2357610c22610b71565b5b6000610c3184828501610bf8565b91505092915050565b60008115159050919050565b610c4f81610c3a565b82525050565b6000602082019050610c6a6000830184610c46565b92915050565b7f4e487b7100000000000000000000000000000000000000000000000000000000600052602160045260246000fd5b60048110610cb057610caf610c70565b5b50565b6000819050610cc182610c9f565b919050565b6000610cd182610cb3565b9050919050565b610ce181610cc6565b82525050565b6000602082019050610cfc6000830184610cd8565b92915050565b7f4e487b7100000000000000000000000000000000000000000000000000000000600052602260045260246000fd5b60006002820490506001821680610d4957607f821691505b60208210811415610d5d57610d5c610d02565b5b50919050565b7f496e76616c696420737461746500000000000000000000000000000000000000600082015250565b6000610d99600d83610a31565b9150610da482610d63565b602082019050919050565b60006020820190508181036000830152610dc881610d8c565b9050919050565b7f55736572206469646e2774207061727469636970617465206f6e2063616d706160008201527f69676e0000000000000000000000000000000000000000000000000000000000602082015250565b6000610e2b602383610a31565b9150610e3682610dcf565b604082019050919050565b60006020820190508181036000830152610e5a81610e1e565b9050919050565b7f43616e6e6f7420656e642063616d706169676e206265666f726520646561646c60008201527f696e650000000000000000000000000000000000000000000000000000000000602082015250565b6000610ebd602383610a31565b9150610ec882610e61565b604082019050919050565b60006020820190508181036000830152610eec81610eb0565b9050919050565b610efc81610bcf565b82525050565b6000606082019050610f176000830186610ef3565b610f246020830185610aeb565b610f316040830184610c46565b949350505050565b7f43726f776466756e64696e672063616d706169676e206861732066696e69736860008201527f6564000000000000000000000000000000000000000000000000000000000000602082015250565b6000610f95602283610a31565b9150610fa082610f39565b604082019050919050565b60006020820190508181036000830152610fc481610f88565b9050919050565b7f4e487b7100000000000000000000000000000000000000000000000000000000600052601160045260246000fd5b600061100582610ae1565b915061101083610ae1565b9250827fffffffffffffffffffffffffffffffffffffffffffffffffffffffffffffffff0382111561104557611044610fcb565b5b82820190509291505056fea26469706673582212209df97dea5ee5e8ec62e3ff2886676fe90dfcacb64c06e0e1e1343ef89531619e64736f6c634300080a0033",
  "deployedBytecode": "0x6080604052600436106100dd5760003560e01c806371aac7f91161007f578063c19d93fb11610059578063c19d93fb14610278578063d7bb99ba146102a3578063e5225381146102ad578063eacd52a3146102c4576100dd565b806371aac7f91461020b578063796b23bb14610222578063953b8fb81461024d576100dd565b80633beb26c4116100bb5780633beb26c4146101635780633ccfd60b1461018c57806342e94c90146101a357806368bc0041146101e0576100dd565b806306fdde03146100e2578063332f7acf1461010d57806338af3eed14610138575b600080fd5b3480156100ee57600080fd5b506100f76102ef565b6040516101049190610abf565b60405180910390f35b34801561011957600080fd5b5061012261037d565b60405161012f9190610afa565b60405180910390f35b34801561014457600080fd5b5061014d610383565b60405161015a9190610b56565b60405180910390f35b34801561016f57600080fd5b5061018a60048036038101906101859190610ba2565b6103a9565b005b34801561019857600080fd5b506101a16103b3565b005b3480156101af57600080fd5b506101ca60048036038101906101c59190610c0d565b6105b7565b6040516101d79190610afa565b60405180910390f35b3480156101ec57600080fd5b506101f56105cf565b6040516102029190610c55565b60405180910390f35b34801561021757600080fd5b506102206105e2565b005b34801561022e57600080fd5b50610237610760565b6040516102449190610afa565b60405180910390f35b34801561025957600080fd5b50610262610766565b60405161026f9190610afa565b60405180910390f35b34801561028457600080fd5b5061028d61076c565b60405161029a9190610ce7565b60405180910390f35b6102ab61077f565b005b3480156102b957600080fd5b506102c26108d6565b005b3480156102d057600080fd5b506102d9610a09565b6040516102e69190610c55565b60405180910390f35b600080546102fc90610d31565b80601f016020809104026020016040519081016040528092919081815260200182805461032890610d31565b80156103755780601f1061034a57610100808354040283529160200191610375565b820191906000526020600020905b81548152906001019060200180831161035857829003601f168201915b505050505081565b60065481565b600360009054906101000a900473ffffffffffffffffffffffffffffffffffffffff1681565b8060078190555050565b60018060038111156103c8576103c7610c70565b5b600360149054906101000a900460ff1660038111156103ea576103e9610c70565b5b1461042a576040517f08c379a000000000000000000000000000000000000000000000000000000000815260040161042190610daf565b60405180910390fd5b6000600460003373ffffffffffffffffffffffffffffffffffffffff1673ffffffffffffffffffffffffffffffffffffffff16815260200190815260200160002054116104ac576040517f08c379a00000000000000000000000000000000000000000000000000000000081526004016104a390610e41565b60405180910390fd5b6000600460003373ffffffffffffffffffffffffffffffffffffffff1673ffffffffffffffffffffffffffffffffffffffff1681526020019081526020016000205490506000600460003373ffffffffffffffffffffffffffffffffffffffff1673ffffffffffffffffffffffffffffffffffffffff168152602001908152602001600020819055503373ffffffffffffffffffffffffffffffffffffffff166108fc829081150290604051600060405180830381858888f193505050506105b35780600460003373ffffffffffffffffffffffffffffffffffffffff1673ffffffffffffffffffffffffffffffffffffffff168152602001908152602001600020819055505b5050565b60046020528060005260406000206000915090505481565b60006002546105dc610a1c565b10905090565b60008060038111156105f7576105f6610c70565b5b600360149054906101000a900460ff16600381111561061957610618610c70565b5b14610659576040517f08c379a000000000000000000000000000000000000000000000000000000000815260040161065090610daf565b60405180910390fd5b6106616105cf565b156106a1576040517f08c379a000000000000000000000000000000000000000000000000000000000815260040161069890610ed3565b60405180910390fd5b600560009054906101000a900460ff166106e5576001600360146101000a81548160ff021916908360038111156106db576106da610c70565b5b0217905550610711565b6002600360146101000a81548160ff0219169083600381111561070b5761070a610c70565b5b02179055505b7f6fa7e87ebbd87ed4f1c40bba63144f68fd2bb022fb748ab3b61b5411c39bd47430600654600560009054906101000a900460ff1660405161075593929190610f02565b60405180910390a150565b60025481565b60015481565b600360149054906101000a900460ff1681565b600080600381111561079457610793610c70565b5b600360149054906101000a900460ff1660038111156107b6576107b5610c70565b5b146107f6576040517f08c379a00000000000000000000000000000000000000000000000000000000081526004016107ed90610daf565b60405180910390fd5b6107fe6105cf565b61083d576040517f08c379a000000000000000000000000000000000000000000000000000000000815260040161083490610fab565b60405180910390fd5b34600460003373ffffffffffffffffffffffffffffffffffffffff1673ffffffffffffffffffffffffffffffffffffffff168152602001908152602001600020600082825461088c9190610ffa565b9250508190555034600660008282546108a59190610ffa565b92505081905550600154600654106108d3576001600560006101000a81548160ff0219169083151502179055505b50565b60028060038111156108eb576108ea610c70565b5b600360149054906101000a900460ff16600381111561090d5761090c610c70565b5b1461094d576040517f08c379a000000000000000000000000000000000000000000000000000000000815260040161094490610daf565b60405180910390fd5b600360009054906101000a900473ffffffffffffffffffffffffffffffffffffffff1673ffffffffffffffffffffffffffffffffffffffff166108fc6006549081150290604051600060405180830381858888f19350505050156109da5760038060146101000a81548160ff021916908360038111156109d0576109cf610c70565b5b0217905550610a06565b6001600360146101000a81548160ff02191690836003811115610a00576109ff610c70565b5b02179055505b50565b600560009054906101000a900460ff1681565b6000600754905090565b600081519050919050565b600082825260208201905092915050565b60005b83811015610a60578082015181840152602081019050610a45565b83811115610a6f576000848401525b50505050565b6000601f19601f8301169050919050565b6000610a9182610a26565b610a9b8185610a31565b9350610aab818560208601610a42565b610ab481610a75565b840191505092915050565b60006020820190508181036000830152610ad98184610a86565b905092915050565b6000819050919050565b610af481610ae1565b82525050565b6000602082019050610b0f6000830184610aeb565b92915050565b600073ffffffffffffffffffffffffffffffffffffffff82169050919050565b6000610b4082610b15565b9050919050565b610b5081610b35565b82525050565b6000602082019050610b6b6000830184610b47565b92915050565b600080fd5b610b7f81610ae1565b8114610b8a57600080fd5b50565b600081359050610b9c81610b76565b92915050565b600060208284031215610bb857610bb7610b71565b5b6000610bc684828501610b8d565b91505092915050565b6000610bda82610b15565b9050919050565b610bea81610bcf565b8114610bf557600080fd5b50565b600081359050610c0781610be1565b92915050565b600060208284031215610c2357610c22610b71565b5b6000610c3184828501610bf8565b91505092915050565b60008115159050919050565b610c4f81610c3a565b82525050565b6000602082019050610c6a6000830184610c46565b92915050565b7f4e487b7100000000000000000000000000000000000000000000000000000000600052602160045260246000fd5b60048110610cb057610caf610c70565b5b50565b6000819050610cc182610c9f565b919050565b6000610cd182610cb3565b9050919050565b610ce181610cc6565b82525050565b6000602082019050610cfc6000830184610cd8565b92915050565b7f4e487b7100000000000000000000000000000000000000000000000000000000600052602260045260246000fd5b60006002820490506001821680610d4957607f821691505b60208210811415610d5d57610d5c610d02565b5b50919050565b7f496e76616c696420737461746500000000000000000000000000000000000000600082015250565b6000610d99600d83610a31565b9150610da482610d63565b602082019050919050565b60006020820190508181036000830152610dc881610d8c565b9050919050565b7f55736572206469646e2774207061727469636970617465206f6e2063616d706160008201527f69676e0000000000000000000000000000000000000000000000000000000000602082015250565b6000610e2b602383610a31565b9150610e3682610dcf565b604082019050919050565b60006020820190508181036000830152610e5a81610e1e565b9050919050565b7f43616e6e6f7420656e642063616d706169676e206265666f726520646561646c60008201527f696e650000000000000000000000000000000000000000000000000000000000602082015250565b6000610ebd602383610a31565b9150610ec882610e61565b604082019050919050565b60006020820190508181036000830152610eec81610eb0565b9050919050565b610efc81610bcf565b82525050565b6000606082019050610f176000830186610ef3565b610f246020830185610aeb565b610f316040830184610c46565b949350505050565b7f43726f776466756e64696e672063616d706169676e206861732066696e69736860008201527f6564000000000000000000000000000000000000000000000000000000000000602082015250565b6000610f95602283610a31565b9150610fa082610f39565b604082019050919050565b60006020820190508181036000830152610fc481610f88565b9050919050565b7f4e487b7100000000000000000000000000000000000000000000000000000000600052601160045260246000fd5b600061100582610ae1565b915061101083610ae1565b9250827fffffffffffffffffffffffffffffffffffffffffffffffffffffffffffffffff0382111561104557611044610fcb565b5b82820190509291505056fea26469706673582212209df97dea5ee5e8ec62e3ff2886676fe90dfcacb64c06e0e1e1343ef89531619e64736f6c634300080a0033",
  "immutableReferences": {},
  "source": "// SPDX-License-Identifier: MIT\npragma solidity >=0.7.0 <0.9.0;\nimport \"./PunchStarter.sol\";\n\ncontract TestPunchStarter is PunchStarter {\n    uint256 time;\n\n    constructor(\n        string memory _name,\n        uint256 _targetAmountEth,\n        uint256 _minsToDeadline,\n        address _beneficiary\n    ) PunchStarter(_name, _targetAmountEth, _minsToDeadline, _beneficiary) {}\n\n    function currentTime() internal view override returns (uint256) {\n        return time;\n    }\n\n    function setTime(uint256 _time) public {\n        time = _time;\n    }\n}\n",
  "sourcePath": "/Users/guidodizioli/Repos/Ethereum/punchStarter/contracts/TestPunchStarter.sol",
  "compiler": {
    "name": "solc",
    "version": "0.8.10+commit.fc410830.Emscripten.clang"
  },
  "schemaVersion": "3.4.3",
  "updatedAt": "2021-12-01T13:58:50.029Z",
  "devdoc": {
    "kind": "dev",
    "methods": {},
    "version": 1
  },
  "userdoc": {
    "kind": "user",
    "methods": {},
    "version": 1
  }
}